{
  "_format": "hh-sol-artifact-1",
  "contractName": "WavePortal",
  "sourceName": "contracts/WavePortal.sol",
  "abi": [
    {
      "inputs": [],
      "stateMutability": "payable",
      "type": "constructor"
    },
    {
      "anonymous": false,
      "inputs": [
        {
          "indexed": true,
          "internalType": "address",
          "name": "from",
          "type": "address"
        },
        {
          "indexed": false,
          "internalType": "uint256",
          "name": "timestamp",
          "type": "uint256"
        },
        {
          "indexed": false,
          "internalType": "string",
          "name": "message",
          "type": "string"
        }
      ],
      "name": "NewWave",
      "type": "event"
    },
    {
      "inputs": [],
      "name": "getAllWaves",
      "outputs": [
        {
          "components": [
            {
              "internalType": "address",
              "name": "waver",
              "type": "address"
            },
            {
              "internalType": "string",
              "name": "message",
              "type": "string"
            },
            {
              "internalType": "uint256",
              "name": "timestamp",
              "type": "uint256"
            }
          ],
          "internalType": "struct WavePortal.Wave[]",
          "name": "",
          "type": "tuple[]"
        }
      ],
      "stateMutability": "view",
      "type": "function"
    },
    {
      "inputs": [],
      "name": "getTotalWaves",
      "outputs": [
        {
          "internalType": "uint256",
          "name": "",
          "type": "uint256"
        }
      ],
      "stateMutability": "view",
      "type": "function"
    },
    {
      "inputs": [
        {
          "internalType": "address",
          "name": "",
          "type": "address"
        }
      ],
      "name": "lastWavedAt",
      "outputs": [
        {
          "internalType": "uint256",
          "name": "",
          "type": "uint256"
        }
      ],
      "stateMutability": "view",
      "type": "function"
    },
    {
      "inputs": [],
      "name": "logAllSenders",
      "outputs": [],
      "stateMutability": "view",
      "type": "function"
    },
    {
      "inputs": [
        {
          "internalType": "string",
          "name": "_message",
          "type": "string"
        }
      ],
      "name": "wave",
      "outputs": [],
      "stateMutability": "nonpayable",
      "type": "function"
    }
  ],
  "bytecode": "0x6080604052620000336040518060600160405280603081526020016200158a603091396200003960201b6200080a1760201c565b620001cd565b620000d98160405160240162000050919062000146565b6040516020818303038152906040527f41304fac000000000000000000000000000000000000000000000000000000007bffffffffffffffffffffffffffffffffffffffffffffffffffffffff19166020820180517bffffffffffffffffffffffffffffffffffffffffffffffffffffffff8381831617835250505050620000dc60201b60201c565b50565b60008151905060006a636f6e736f6c652e6c6f679050602083016000808483855afa5050505050565b600062000112826200016a565b6200011e818562000175565b93506200013081856020860162000186565b6200013b81620001bc565b840191505092915050565b6000602082019050818103600083015262000162818462000105565b905092915050565b600081519050919050565b600082825260208201905092915050565b60005b83811015620001a657808201518184015260208101905062000189565b83811115620001b6576000848401525b50505050565b6000601f19601f8301169050919050565b6113ad80620001dd6000396000f3fe608060405234801561001057600080fd5b50600436106100575760003560e01c8063449d46c01461005c578063469e9c72146100785780639a2cdc0814610082578063a42a4663146100a0578063bd43a908146100d0575b600080fd5b61007660048036038101906100719190610b4d565b6100ee565b005b61008061054f565b005b61008a610656565b6040516100979190610eba565b60405180910390f35b6100ba60048036038101906100b59190610b24565b6106a1565b6040516100c79190610eba565b60405180910390f35b6100d86106b9565b6040516100e59190610db6565b60405180910390f35b42610384600460003373ffffffffffffffffffffffffffffffffffffffff1673ffffffffffffffffffffffffffffffffffffffff1681526020019081526020016000205461013c9190610fcc565b1061017c576040517f08c379a000000000000000000000000000000000000000000000000000000000815260040161017390610e7a565b60405180910390fd5b42600460003373ffffffffffffffffffffffffffffffffffffffff1673ffffffffffffffffffffffffffffffffffffffff1681526020019081526020016000208190555060016000808282546101d29190610fcc565b92505081905550600260405180606001604052803373ffffffffffffffffffffffffffffffffffffffff16815260200183815260200142815250908060018154018082558091505060019003906000526020600020906003020160009091909190915060008201518160000160006101000a81548173ffffffffffffffffffffffffffffffffffffffff021916908373ffffffffffffffffffffffffffffffffffffffff1602179055506020820151816001019080519060200190610298929190610a04565b506040820151816002015550506003339080600181540180825580915050600190039060005260206000200160009091909190916101000a81548173ffffffffffffffffffffffffffffffffffffffff021916908373ffffffffffffffffffffffffffffffffffffffff16021790555060006064600154424461031b9190610fcc565b6103259190610fcc565b61032f919061114c565b90506103706040518060400160405280601b81526020017f52616e646f6d206e756d6265722067656e6572617465643a2025730000000000815250826108a3565b8060018190555060328110156104bc576103bf6040518060400160405280600781526020017f257320776f6e21000000000000000000000000000000000000000000000000008152503361093f565b6000655af3107a400090504781111561040d576040517f08c379a000000000000000000000000000000000000000000000000000000000815260040161040490610e9a565b60405180910390fd5b60003373ffffffffffffffffffffffffffffffffffffffff168260405161043390610da1565b60006040518083038185875af1925050503d8060008114610470576040519150601f19603f3d011682016040523d82523d6000602084013e610475565b606091505b50509050806104b9576040517f08c379a00000000000000000000000000000000000000000000000000000000081526004016104b090610e5a565b60405180910390fd5b50505b3373ffffffffffffffffffffffffffffffffffffffff167f5f7e16dc676677766a70e9c5628aa6c54ddb8b6e5188e2ae1e1f17f1ffbea7164284604051610504929190610ed5565b60405180910390a261054b6040518060400160405280600e81526020017f25732068617665207761766564210000000000000000000000000000000000008152503361093f565b5050565b61058d6040518060400160405280601d81526020017f0a202d2d2d204c495354494e4720414c4c2053454e44455253202d2d2d00000081525061080a565b60005b600380549050811015610653576106406040518060400160405280600281526020017f257300000000000000000000000000000000000000000000000000000000000081525060038381548110610610577f4e487b7100000000000000000000000000000000000000000000000000000000600052603260045260246000fd5b9060005260206000200160009054906101000a900473ffffffffffffffffffffffffffffffffffffffff1661093f565b808061064b90611103565b915050610590565b50565b60006106996040518060400160405280601681526020017f5765206861766520256420746f74616c207761766573000000000000000000008152506000546108a3565b600054905090565b60046020528060005260406000206000915090505481565b60606002805480602002602001604051908101604052809291908181526020016000905b8282101561080157838290600052602060002090600302016040518060600160405290816000820160009054906101000a900473ffffffffffffffffffffffffffffffffffffffff1673ffffffffffffffffffffffffffffffffffffffff1673ffffffffffffffffffffffffffffffffffffffff168152602001600182018054610766906110a0565b80601f0160208091040260200160405190810160405280929190818152602001828054610792906110a0565b80156107df5780601f106107b4576101008083540402835291602001916107df565b820191906000526020600020905b8154815290600101906020018083116107c257829003601f168201915b50505050508152602001600282015481525050815260200190600101906106dd565b50505050905090565b6108a08160405160240161081e9190610dd8565b6040516020818303038152906040527f41304fac000000000000000000000000000000000000000000000000000000007bffffffffffffffffffffffffffffffffffffffffffffffffffffffff19166020820180517bffffffffffffffffffffffffffffffffffffffffffffffffffffffff83818316178352505050506109db565b50565b61093b82826040516024016108b9929190610e2a565b6040516020818303038152906040527f9710a9d0000000000000000000000000000000000000000000000000000000007bffffffffffffffffffffffffffffffffffffffffffffffffffffffff19166020820180517bffffffffffffffffffffffffffffffffffffffffffffffffffffffff83818316178352505050506109db565b5050565b6109d78282604051602401610955929190610dfa565b6040516020818303038152906040527f319af333000000000000000000000000000000000000000000000000000000007bffffffffffffffffffffffffffffffffffffffffffffffffffffffff19166020820180517bffffffffffffffffffffffffffffffffffffffffffffffffffffffff83818316178352505050506109db565b5050565b60008151905060006a636f6e736f6c652e6c6f679050602083016000808483855afa5050505050565b828054610a10906110a0565b90600052602060002090601f016020900481019282610a325760008555610a79565b82601f10610a4b57805160ff1916838001178555610a79565b82800160010185558215610a79579182015b82811115610a78578251825591602001919060010190610a5d565b5b509050610a869190610a8a565b5090565b5b80821115610aa3576000816000905550600101610a8b565b5090565b6000610aba610ab584610f2a565b610f05565b905082815260208101848484011115610ad257600080fd5b610add84828561105e565b509392505050565b600081359050610af481611360565b92915050565b600082601f830112610b0b57600080fd5b8135610b1b848260208601610aa7565b91505092915050565b600060208284031215610b3657600080fd5b6000610b4484828501610ae5565b91505092915050565b600060208284031215610b5f57600080fd5b600082013567ffffffffffffffff811115610b7957600080fd5b610b8584828501610afa565b91505092915050565b6000610b9a8383610d33565b905092915050565b610bab81611022565b82525050565b610bba81611022565b82525050565b6000610bcb82610f6b565b610bd58185610f8e565b935083602082028501610be785610f5b565b8060005b85811015610c235784840389528151610c048582610b8e565b9450610c0f83610f81565b925060208a01995050600181019050610beb565b50829750879550505050505092915050565b6000610c4082610f76565b610c4a8185610faa565b9350610c5a81856020860161106d565b610c6381611239565b840191505092915050565b6000610c7982610f76565b610c838185610fbb565b9350610c9381856020860161106d565b610c9c81611239565b840191505092915050565b6000610cb4602783610fbb565b9150610cbf8261124a565b604082019050919050565b6000610cd7600083610f9f565b9150610ce282611299565b600082019050919050565b6000610cfa600883610fbb565b9150610d058261129c565b602082019050919050565b6000610d1d606583610fbb565b9150610d28826112c5565b608082019050919050565b6000606083016000830151610d4b6000860182610ba2565b5060208301518482036020860152610d638282610c35565b9150506040830151610d786040860182610d83565b508091505092915050565b610d8c81611054565b82525050565b610d9b81611054565b82525050565b6000610dac82610cca565b9150819050919050565b60006020820190508181036000830152610dd08184610bc0565b905092915050565b60006020820190508181036000830152610df28184610c6e565b905092915050565b60006040820190508181036000830152610e148185610c6e565b9050610e236020830184610bb1565b9392505050565b60006040820190508181036000830152610e448185610c6e565b9050610e536020830184610d92565b9392505050565b60006020820190508181036000830152610e7381610ca7565b9050919050565b60006020820190508181036000830152610e9381610ced565b9050919050565b60006020820190508181036000830152610eb381610d10565b9050919050565b6000602082019050610ecf6000830184610d92565b92915050565b6000604082019050610eea6000830185610d92565b8181036020830152610efc8184610c6e565b90509392505050565b6000610f0f610f20565b9050610f1b82826110d2565b919050565b6000604051905090565b600067ffffffffffffffff821115610f4557610f4461120a565b5b610f4e82611239565b9050602081019050919050565b6000819050602082019050919050565b600081519050919050565b600081519050919050565b6000602082019050919050565b600082825260208201905092915050565b600081905092915050565b600082825260208201905092915050565b600082825260208201905092915050565b6000610fd782611054565b9150610fe283611054565b9250827fffffffffffffffffffffffffffffffffffffffffffffffffffffffffffffffff038211156110175761101661117d565b5b828201905092915050565b600061102d82611034565b9050919050565b600073ffffffffffffffffffffffffffffffffffffffff82169050919050565b6000819050919050565b82818337600083830152505050565b60005b8381101561108b578082015181840152602081019050611070565b8381111561109a576000848401525b50505050565b600060028204905060018216806110b857607f821691505b602082108114156110cc576110cb6111db565b5b50919050565b6110db82611239565b810181811067ffffffffffffffff821117156110fa576110f961120a565b5b80604052505050565b600061110e82611054565b91507fffffffffffffffffffffffffffffffffffffffffffffffffffffffffffffffff8214156111415761114061117d565b5b600182019050919050565b600061115782611054565b915061116283611054565b925082611172576111716111ac565b5b828206905092915050565b7f4e487b7100000000000000000000000000000000000000000000000000000000600052601160045260246000fd5b7f4e487b7100000000000000000000000000000000000000000000000000000000600052601260045260246000fd5b7f4e487b7100000000000000000000000000000000000000000000000000000000600052602260045260246000fd5b7f4e487b7100000000000000000000000000000000000000000000000000000000600052604160045260246000fd5b6000601f19601f8301169050919050565b7f4661696c656420746f207769746864726177206d6f6e65792066726f6d20636f60008201527f6e74726163742e00000000000000000000000000000000000000000000000000602082015250565b50565b7f576169742031356d000000000000000000000000000000000000000000000000600082015250565b7f536572696f75736c793f20547279696e6720746f207769746864726177206d6f60008201527f7265206d6f6e6579207468616e2074686520636f6e7472616374206861733f2060208201527f49276d207375726520796f752063616e20626520626574746572207468616e2060408201527f7468617421000000000000000000000000000000000000000000000000000000606082015250565b61136981611022565b811461137457600080fd5b5056fea26469706673582212209ee86a8e7dff6ac4e4fbe5af890dac816a4b23cecc52e2bf75c25353bc860e6c64736f6c63430008040033576f772c2074686973206973207265616c6c7920612066616e6379202620736d61727420636f6e747261637421203a6f",
  "linkReferences": {},
  "deployedLinkReferences": {}
}