{
  "_format": "hh-sol-artifact-1",
  "contractName": "WavePortal",
  "sourceName": "contracts/WavePortal.sol",
  "abi": [
    {
      "inputs": [],
      "stateMutability": "nonpayable",
      "type": "constructor"
    },
    {
      "anonymous": false,
      "inputs": [
        {
          "indexed": true,
          "internalType": "address",
          "name": "from",
          "type": "address"
        },
        {
          "indexed": false,
          "internalType": "uint256",
          "name": "timestamp",
          "type": "uint256"
        },
        {
          "indexed": false,
          "internalType": "string",
          "name": "message",
          "type": "string"
        }
      ],
      "name": "NewWave",
      "type": "event"
    },
    {
      "inputs": [],
      "name": "getAllWaves",
      "outputs": [
        {
          "components": [
            {
              "internalType": "address",
              "name": "waver",
              "type": "address"
            },
            {
              "internalType": "string",
              "name": "message",
              "type": "string"
            },
            {
              "internalType": "uint256",
              "name": "timestamp",
              "type": "uint256"
            }
          ],
          "internalType": "struct WavePortal.Wave[]",
          "name": "",
          "type": "tuple[]"
        }
      ],
      "stateMutability": "view",
      "type": "function"
    },
    {
      "inputs": [],
      "name": "getTotalWaves",
      "outputs": [
        {
          "internalType": "uint256",
          "name": "",
          "type": "uint256"
        }
      ],
      "stateMutability": "view",
      "type": "function"
    },
    {
      "inputs": [],
      "name": "logAllSenders",
      "outputs": [],
      "stateMutability": "view",
      "type": "function"
    },
    {
      "inputs": [
        {
          "internalType": "string",
          "name": "_message",
          "type": "string"
        }
      ],
      "name": "wave",
      "outputs": [],
      "stateMutability": "nonpayable",
      "type": "function"
    }
  ],
  "bytecode": "0x60806040523480156200001157600080fd5b506200004160405180606001604052806030815260200162000fe7603091396200004760201b620005301760201c565b620001db565b620000e7816040516024016200005e919062000154565b6040516020818303038152906040527f41304fac000000000000000000000000000000000000000000000000000000007bffffffffffffffffffffffffffffffffffffffffffffffffffffffff19166020820180517bffffffffffffffffffffffffffffffffffffffffffffffffffffffff8381831617835250505050620000ea60201b60201c565b50565b60008151905060006a636f6e736f6c652e6c6f679050602083016000808483855afa5050505050565b6000620001208262000178565b6200012c818562000183565b93506200013e81856020860162000194565b6200014981620001ca565b840191505092915050565b6000602082019050818103600083015262000170818462000113565b905092915050565b600081519050919050565b600082825260208201905092915050565b60005b83811015620001b457808201518184015260208101905062000197565b83811115620001c4576000848401525b50505050565b6000601f19601f8301169050919050565b610dfc80620001eb6000396000f3fe608060405234801561001057600080fd5b506004361061004c5760003560e01c8063449d46c014610051578063469e9c721461006d5780639a2cdc0814610077578063bd43a90814610095575b600080fd5b61006b60048036038101906100669190610835565b6100b3565b005b61007561028d565b005b61007f610394565b60405161008c9190610aa1565b60405180910390f35b61009d6103df565b6040516100aa91906109fd565b60405180910390f35b60016000808282546100c59190610ba8565b92505081905550600160405180606001604052803373ffffffffffffffffffffffffffffffffffffffff16815260200183815260200142815250908060018154018082558091505060019003906000526020600020906003020160009091909190915060008201518160000160006101000a81548173ffffffffffffffffffffffffffffffffffffffff021916908373ffffffffffffffffffffffffffffffffffffffff160217905550602082015181600101908051906020019061018b92919061072a565b506040820151816002015550506002339080600181540180825580915050600190039060005260206000200160009091909190916101000a81548173ffffffffffffffffffffffffffffffffffffffff021916908373ffffffffffffffffffffffffffffffffffffffff1602179055503373ffffffffffffffffffffffffffffffffffffffff167f5f7e16dc676677766a70e9c5628aa6c54ddb8b6e5188e2ae1e1f17f1ffbea7164283604051610243929190610abc565b60405180910390a261028a6040518060400160405280600e81526020017f2573206861766520776176656421000000000000000000000000000000000000815250336105c9565b50565b6102cb6040518060400160405280601d81526020017f0a202d2d2d204c495354494e4720414c4c2053454e44455253202d2d2d000000815250610530565b60005b6002805490508110156103915761037e6040518060400160405280600281526020017f25730000000000000000000000000000000000000000000000000000000000008152506002838154811061034e577f4e487b7100000000000000000000000000000000000000000000000000000000600052603260045260246000fd5b9060005260206000200160009054906101000a900473ffffffffffffffffffffffffffffffffffffffff166105c9565b808061038990610cdf565b9150506102ce565b50565b60006103d76040518060400160405280601681526020017f5765206861766520256420746f74616c20776176657300000000000000000000815250600054610665565b600054905090565b60606001805480602002602001604051908101604052809291908181526020016000905b8282101561052757838290600052602060002090600302016040518060600160405290816000820160009054906101000a900473ffffffffffffffffffffffffffffffffffffffff1673ffffffffffffffffffffffffffffffffffffffff1673ffffffffffffffffffffffffffffffffffffffff16815260200160018201805461048c90610c7c565b80601f01602080910402602001604051908101604052809291908181526020018280546104b890610c7c565b80156105055780601f106104da57610100808354040283529160200191610505565b820191906000526020600020905b8154815290600101906020018083116104e857829003601f168201915b5050505050815260200160028201548152505081526020019060010190610403565b50505050905090565b6105c6816040516024016105449190610a1f565b6040516020818303038152906040527f41304fac000000000000000000000000000000000000000000000000000000007bffffffffffffffffffffffffffffffffffffffffffffffffffffffff19166020820180517bffffffffffffffffffffffffffffffffffffffffffffffffffffffff8381831617835250505050610701565b50565b61066182826040516024016105df929190610a41565b6040516020818303038152906040527f319af333000000000000000000000000000000000000000000000000000000007bffffffffffffffffffffffffffffffffffffffffffffffffffffffff19166020820180517bffffffffffffffffffffffffffffffffffffffffffffffffffffffff8381831617835250505050610701565b5050565b6106fd828260405160240161067b929190610a71565b6040516020818303038152906040527f9710a9d0000000000000000000000000000000000000000000000000000000007bffffffffffffffffffffffffffffffffffffffffffffffffffffffff19166020820180517bffffffffffffffffffffffffffffffffffffffffffffffffffffffff8381831617835250505050610701565b5050565b60008151905060006a636f6e736f6c652e6c6f679050602083016000808483855afa5050505050565b82805461073690610c7c565b90600052602060002090601f016020900481019282610758576000855561079f565b82601f1061077157805160ff191683800117855561079f565b8280016001018555821561079f579182015b8281111561079e578251825591602001919060010190610783565b5b5090506107ac91906107b0565b5090565b5b808211156107c95760008160009055506001016107b1565b5090565b60006107e06107db84610b11565b610aec565b9050828152602081018484840111156107f857600080fd5b610803848285610c3a565b509392505050565b600082601f83011261081c57600080fd5b813561082c8482602086016107cd565b91505092915050565b60006020828403121561084757600080fd5b600082013567ffffffffffffffff81111561086157600080fd5b61086d8482850161080b565b91505092915050565b6000610882838361098f565b905092915050565b61089381610bfe565b82525050565b6108a281610bfe565b82525050565b60006108b382610b52565b6108bd8185610b75565b9350836020820285016108cf85610b42565b8060005b8581101561090b57848403895281516108ec8582610876565b94506108f783610b68565b925060208a019950506001810190506108d3565b50829750879550505050505092915050565b600061092882610b5d565b6109328185610b86565b9350610942818560208601610c49565b61094b81610db5565b840191505092915050565b600061096182610b5d565b61096b8185610b97565b935061097b818560208601610c49565b61098481610db5565b840191505092915050565b60006060830160008301516109a7600086018261088a565b50602083015184820360208601526109bf828261091d565b91505060408301516109d460408601826109df565b508091505092915050565b6109e881610c30565b82525050565b6109f781610c30565b82525050565b60006020820190508181036000830152610a1781846108a8565b905092915050565b60006020820190508181036000830152610a398184610956565b905092915050565b60006040820190508181036000830152610a5b8185610956565b9050610a6a6020830184610899565b9392505050565b60006040820190508181036000830152610a8b8185610956565b9050610a9a60208301846109ee565b9392505050565b6000602082019050610ab660008301846109ee565b92915050565b6000604082019050610ad160008301856109ee565b8181036020830152610ae38184610956565b90509392505050565b6000610af6610b07565b9050610b028282610cae565b919050565b6000604051905090565b600067ffffffffffffffff821115610b2c57610b2b610d86565b5b610b3582610db5565b9050602081019050919050565b6000819050602082019050919050565b600081519050919050565b600081519050919050565b6000602082019050919050565b600082825260208201905092915050565b600082825260208201905092915050565b600082825260208201905092915050565b6000610bb382610c30565b9150610bbe83610c30565b9250827fffffffffffffffffffffffffffffffffffffffffffffffffffffffffffffffff03821115610bf357610bf2610d28565b5b828201905092915050565b6000610c0982610c10565b9050919050565b600073ffffffffffffffffffffffffffffffffffffffff82169050919050565b6000819050919050565b82818337600083830152505050565b60005b83811015610c67578082015181840152602081019050610c4c565b83811115610c76576000848401525b50505050565b60006002820490506001821680610c9457607f821691505b60208210811415610ca857610ca7610d57565b5b50919050565b610cb782610db5565b810181811067ffffffffffffffff82111715610cd657610cd5610d86565b5b80604052505050565b6000610cea82610c30565b91507fffffffffffffffffffffffffffffffffffffffffffffffffffffffffffffffff821415610d1d57610d1c610d28565b5b600182019050919050565b7f4e487b7100000000000000000000000000000000000000000000000000000000600052601160045260246000fd5b7f4e487b7100000000000000000000000000000000000000000000000000000000600052602260045260246000fd5b7f4e487b7100000000000000000000000000000000000000000000000000000000600052604160045260246000fd5b6000601f19601f830116905091905056fea2646970667358221220ffe5ba03174871768f0fa438c968d770232816053981e0fa556d659a43c8e78064736f6c63430008040033576f772c2074686973206973207265616c6c7920612066616e6379202620736d61727420636f6e747261637421203a6f",
  "linkReferences": {},
  "deployedLinkReferences": {}
}