{
  "_format": "hh-sol-artifact-1",
  "contractName": "WavePortal",
  "sourceName": "contracts/WavePortal.sol",
  "abi": [
    {
      "inputs": [],
      "stateMutability": "nonpayable",
      "type": "constructor"
    },
    {
      "inputs": [],
      "name": "getTotalWaves",
      "outputs": [
        {
          "internalType": "uint256",
          "name": "",
          "type": "uint256"
        }
      ],
      "stateMutability": "view",
      "type": "function"
    },
    {
      "inputs": [],
      "name": "logAllSenders",
      "outputs": [],
      "stateMutability": "view",
      "type": "function"
    },
    {
      "inputs": [],
      "name": "wave",
      "outputs": [],
      "stateMutability": "nonpayable",
      "type": "function"
    }
  ],
  "bytecode": "0x608060405234801561001057600080fd5b5061003c6040518060600160405280603081526020016108e86030913961004160201b6102871760201c565b6101c4565b6100dd816040516024016100559190610142565b6040516020818303038152906040527f41304fac000000000000000000000000000000000000000000000000000000007bffffffffffffffffffffffffffffffffffffffffffffffffffffffff19166020820180517bffffffffffffffffffffffffffffffffffffffffffffffffffffffff83818316178352505050506100e060201b60201c565b50565b60008151905060006a636f6e736f6c652e6c6f679050602083016000808483855afa5050505050565b600061011482610164565b61011e818561016f565b935061012e818560208601610180565b610137816101b3565b840191505092915050565b6000602082019050818103600083015261015c8184610109565b905092915050565b600081519050919050565b600082825260208201905092915050565b60005b8381101561019e578082015181840152602081019050610183565b838111156101ad576000848401525b50505050565b6000601f19601f8301169050919050565b610715806101d36000396000f3fe608060405234801561001057600080fd5b50600436106100415760003560e01c8063469e9c72146100465780636fe15b44146100505780639a2cdc081461005a575b600080fd5b61004e610078565b005b61005861017f565b005b61006261023c565b60405161006f919061055a565b60405180910390f35b6100b66040518060400160405280601d81526020017f0a202d2d2d204c495354494e4720414c4c2053454e44455253202d2d2d000000815250610287565b60005b60018054905081101561017c576101696040518060400160405280600281526020017f257300000000000000000000000000000000000000000000000000000000000081525060018381548110610139577f4e487b7100000000000000000000000000000000000000000000000000000000600052603260045260246000fd5b9060005260206000200160009054906101000a900473ffffffffffffffffffffffffffffffffffffffff16610320565b808061017490610656565b9150506100b9565b50565b60016000808282546101919190610591565b925050819055506001339080600181540180825580915050600190039060005260206000200160009091909190916101000a81548173ffffffffffffffffffffffffffffffffffffffff021916908373ffffffffffffffffffffffffffffffffffffffff16021790555061023a6040518060400160405280600e81526020017f257320686176652077617665642100000000000000000000000000000000000081525033610320565b565b600061027f6040518060400160405280601681526020017f5765206861766520256420746f74616c207761766573000000000000000000008152506000546103bc565b600054905090565b61031d8160405160240161029b91906104d8565b6040516020818303038152906040527f41304fac000000000000000000000000000000000000000000000000000000007bffffffffffffffffffffffffffffffffffffffffffffffffffffffff19166020820180517bffffffffffffffffffffffffffffffffffffffffffffffffffffffff8381831617835250505050610458565b50565b6103b882826040516024016103369291906104fa565b6040516020818303038152906040527f319af333000000000000000000000000000000000000000000000000000000007bffffffffffffffffffffffffffffffffffffffffffffffffffffffff19166020820180517bffffffffffffffffffffffffffffffffffffffffffffffffffffffff8381831617835250505050610458565b5050565b61045482826040516024016103d292919061052a565b6040516020818303038152906040527f9710a9d0000000000000000000000000000000000000000000000000000000007bffffffffffffffffffffffffffffffffffffffffffffffffffffffff19166020820180517bffffffffffffffffffffffffffffffffffffffffffffffffffffffff8381831617835250505050610458565b5050565b60008151905060006a636f6e736f6c652e6c6f679050602083016000808483855afa5050505050565b61048a816105e7565b82525050565b600061049b82610575565b6104a58185610580565b93506104b5818560208601610623565b6104be816106ce565b840191505092915050565b6104d281610619565b82525050565b600060208201905081810360008301526104f28184610490565b905092915050565b600060408201905081810360008301526105148185610490565b90506105236020830184610481565b9392505050565b600060408201905081810360008301526105448185610490565b905061055360208301846104c9565b9392505050565b600060208201905061056f60008301846104c9565b92915050565b600081519050919050565b600082825260208201905092915050565b600061059c82610619565b91506105a783610619565b9250827fffffffffffffffffffffffffffffffffffffffffffffffffffffffffffffffff038211156105dc576105db61069f565b5b828201905092915050565b60006105f2826105f9565b9050919050565b600073ffffffffffffffffffffffffffffffffffffffff82169050919050565b6000819050919050565b60005b83811015610641578082015181840152602081019050610626565b83811115610650576000848401525b50505050565b600061066182610619565b91507fffffffffffffffffffffffffffffffffffffffffffffffffffffffffffffffff8214156106945761069361069f565b5b600182019050919050565b7f4e487b7100000000000000000000000000000000000000000000000000000000600052601160045260246000fd5b6000601f19601f830116905091905056fea2646970667358221220689e31a3f93b5e6ebf9b4a6f0ad1646770ddbef37f649c7c0a5b605c071862f364736f6c63430008040033576f772c2074686973206973207265616c6c7920612066616e6379202620736d61727420636f6e747261637421203a6f",
  "linkReferences": {},
  "deployedLinkReferences": {}
}