{
  "_format": "hh-sol-artifact-1",
  "contractName": "WavePortal",
  "sourceName": "contracts/WavePortal.sol",
  "abi": [
    {
      "inputs": [],
      "stateMutability": "payable",
      "type": "constructor"
    },
    {
      "anonymous": false,
      "inputs": [
        {
          "indexed": true,
          "internalType": "address",
          "name": "from",
          "type": "address"
        },
        {
          "indexed": false,
          "internalType": "uint256",
          "name": "timestamp",
          "type": "uint256"
        },
        {
          "indexed": false,
          "internalType": "string",
          "name": "message",
          "type": "string"
        }
      ],
      "name": "NewWave",
      "type": "event"
    },
    {
      "inputs": [],
      "name": "getAllWaves",
      "outputs": [
        {
          "components": [
            {
              "internalType": "address",
              "name": "waver",
              "type": "address"
            },
            {
              "internalType": "string",
              "name": "message",
              "type": "string"
            },
            {
              "internalType": "uint256",
              "name": "timestamp",
              "type": "uint256"
            }
          ],
          "internalType": "struct WavePortal.Wave[]",
          "name": "",
          "type": "tuple[]"
        }
      ],
      "stateMutability": "view",
      "type": "function"
    },
    {
      "inputs": [],
      "name": "getTotalWaves",
      "outputs": [
        {
          "internalType": "uint256",
          "name": "",
          "type": "uint256"
        }
      ],
      "stateMutability": "view",
      "type": "function"
    },
    {
      "inputs": [],
      "name": "logAllSenders",
      "outputs": [],
      "stateMutability": "view",
      "type": "function"
    },
    {
      "inputs": [
        {
          "internalType": "string",
          "name": "_message",
          "type": "string"
        }
      ],
      "name": "wave",
      "outputs": [],
      "stateMutability": "nonpayable",
      "type": "function"
    }
  ],
  "bytecode": "0x6080604052620000336040518060600160405280603081526020016200128b603091396200003960201b6200062c1760201c565b620001cd565b620000d98160405160240162000050919062000146565b6040516020818303038152906040527f41304fac000000000000000000000000000000000000000000000000000000007bffffffffffffffffffffffffffffffffffffffffffffffffffffffff19166020820180517bffffffffffffffffffffffffffffffffffffffffffffffffffffffff8381831617835250505050620000dc60201b60201c565b50565b60008151905060006a636f6e736f6c652e6c6f679050602083016000808483855afa5050505050565b600062000112826200016a565b6200011e818562000175565b93506200013081856020860162000186565b6200013b81620001bc565b840191505092915050565b6000602082019050818103600083015262000162818462000105565b905092915050565b600081519050919050565b600082825260208201905092915050565b60005b83811015620001a657808201518184015260208101905062000189565b83811115620001b6576000848401525b50505050565b6000601f19601f8301169050919050565b6110ae80620001dd6000396000f3fe608060405234801561001057600080fd5b506004361061004c5760003560e01c8063449d46c014610051578063469e9c721461006d5780639a2cdc0814610077578063bd43a90814610095575b600080fd5b61006b60048036038101906100669190610931565b6100b3565b005b610075610389565b005b61007f610490565b60405161008c9190610c5b565b60405180910390f35b61009d6104db565b6040516100aa9190610b77565b60405180910390f35b60016000808282546100c59190610d6d565b92505081905550600160405180606001604052803373ffffffffffffffffffffffffffffffffffffffff16815260200183815260200142815250908060018154018082558091505060019003906000526020600020906003020160009091909190915060008201518160000160006101000a81548173ffffffffffffffffffffffffffffffffffffffff021916908373ffffffffffffffffffffffffffffffffffffffff160217905550602082015181600101908051906020019061018b929190610826565b506040820151816002015550506002339080600181540180825580915050600190039060005260206000200160009091909190916101000a81548173ffffffffffffffffffffffffffffffffffffffff021916908373ffffffffffffffffffffffffffffffffffffffff1602179055503373ffffffffffffffffffffffffffffffffffffffff167f5f7e16dc676677766a70e9c5628aa6c54ddb8b6e5188e2ae1e1f17f1ffbea7164283604051610243929190610c76565b60405180910390a261028a6040518060400160405280600e81526020017f2573206861766520776176656421000000000000000000000000000000000000815250336106c5565b6000655af3107a40009050478111156102d8576040517f08c379a00000000000000000000000000000000000000000000000000000000081526004016102cf90610c3b565b60405180910390fd5b60003373ffffffffffffffffffffffffffffffffffffffff16826040516102fe90610b62565b60006040518083038185875af1925050503d806000811461033b576040519150601f19603f3d011682016040523d82523d6000602084013e610340565b606091505b5050905080610384576040517f08c379a000000000000000000000000000000000000000000000000000000000815260040161037b90610c1b565b60405180910390fd5b505050565b6103c76040518060400160405280601d81526020017f0a202d2d2d204c495354494e4720414c4c2053454e44455253202d2d2d00000081525061062c565b60005b60028054905081101561048d5761047a6040518060400160405280600281526020017f25730000000000000000000000000000000000000000000000000000000000008152506002838154811061044a577f4e487b7100000000000000000000000000000000000000000000000000000000600052603260045260246000fd5b9060005260206000200160009054906101000a900473ffffffffffffffffffffffffffffffffffffffff166106c5565b808061048590610ea4565b9150506103ca565b50565b60006104d36040518060400160405280601681526020017f5765206861766520256420746f74616c20776176657300000000000000000000815250600054610761565b600054905090565b60606001805480602002602001604051908101604052809291908181526020016000905b8282101561062357838290600052602060002090600302016040518060600160405290816000820160009054906101000a900473ffffffffffffffffffffffffffffffffffffffff1673ffffffffffffffffffffffffffffffffffffffff1673ffffffffffffffffffffffffffffffffffffffff16815260200160018201805461058890610e41565b80601f01602080910402602001604051908101604052809291908181526020018280546105b490610e41565b80156106015780601f106105d657610100808354040283529160200191610601565b820191906000526020600020905b8154815290600101906020018083116105e457829003601f168201915b50505050508152602001600282015481525050815260200190600101906104ff565b50505050905090565b6106c2816040516024016106409190610b99565b6040516020818303038152906040527f41304fac000000000000000000000000000000000000000000000000000000007bffffffffffffffffffffffffffffffffffffffffffffffffffffffff19166020820180517bffffffffffffffffffffffffffffffffffffffffffffffffffffffff83818316178352505050506107fd565b50565b61075d82826040516024016106db929190610bbb565b6040516020818303038152906040527f319af333000000000000000000000000000000000000000000000000000000007bffffffffffffffffffffffffffffffffffffffffffffffffffffffff19166020820180517bffffffffffffffffffffffffffffffffffffffffffffffffffffffff83818316178352505050506107fd565b5050565b6107f98282604051602401610777929190610beb565b6040516020818303038152906040527f9710a9d0000000000000000000000000000000000000000000000000000000007bffffffffffffffffffffffffffffffffffffffffffffffffffffffff19166020820180517bffffffffffffffffffffffffffffffffffffffffffffffffffffffff83818316178352505050506107fd565b5050565b60008151905060006a636f6e736f6c652e6c6f679050602083016000808483855afa5050505050565b82805461083290610e41565b90600052602060002090601f016020900481019282610854576000855561089b565b82601f1061086d57805160ff191683800117855561089b565b8280016001018555821561089b579182015b8281111561089a57825182559160200191906001019061087f565b5b5090506108a891906108ac565b5090565b5b808211156108c55760008160009055506001016108ad565b5090565b60006108dc6108d784610ccb565b610ca6565b9050828152602081018484840111156108f457600080fd5b6108ff848285610dff565b509392505050565b600082601f83011261091857600080fd5b81356109288482602086016108c9565b91505092915050565b60006020828403121561094357600080fd5b600082013567ffffffffffffffff81111561095d57600080fd5b61096984828501610907565b91505092915050565b600061097e8383610af4565b905092915050565b61098f81610dc3565b82525050565b61099e81610dc3565b82525050565b60006109af82610d0c565b6109b98185610d2f565b9350836020820285016109cb85610cfc565b8060005b85811015610a0757848403895281516109e88582610972565b94506109f383610d22565b925060208a019950506001810190506109cf565b50829750879550505050505092915050565b6000610a2482610d17565b610a2e8185610d4b565b9350610a3e818560208601610e0e565b610a4781610f7a565b840191505092915050565b6000610a5d82610d17565b610a678185610d5c565b9350610a77818560208601610e0e565b610a8081610f7a565b840191505092915050565b6000610a98602783610d5c565b9150610aa382610f8b565b604082019050919050565b6000610abb600083610d40565b9150610ac682610fda565b600082019050919050565b6000610ade606583610d5c565b9150610ae982610fdd565b608082019050919050565b6000606083016000830151610b0c6000860182610986565b5060208301518482036020860152610b248282610a19565b9150506040830151610b396040860182610b44565b508091505092915050565b610b4d81610df5565b82525050565b610b5c81610df5565b82525050565b6000610b6d82610aae565b9150819050919050565b60006020820190508181036000830152610b9181846109a4565b905092915050565b60006020820190508181036000830152610bb38184610a52565b905092915050565b60006040820190508181036000830152610bd58185610a52565b9050610be46020830184610995565b9392505050565b60006040820190508181036000830152610c058185610a52565b9050610c146020830184610b53565b9392505050565b60006020820190508181036000830152610c3481610a8b565b9050919050565b60006020820190508181036000830152610c5481610ad1565b9050919050565b6000602082019050610c706000830184610b53565b92915050565b6000604082019050610c8b6000830185610b53565b8181036020830152610c9d8184610a52565b90509392505050565b6000610cb0610cc1565b9050610cbc8282610e73565b919050565b6000604051905090565b600067ffffffffffffffff821115610ce657610ce5610f4b565b5b610cef82610f7a565b9050602081019050919050565b6000819050602082019050919050565b600081519050919050565b600081519050919050565b6000602082019050919050565b600082825260208201905092915050565b600081905092915050565b600082825260208201905092915050565b600082825260208201905092915050565b6000610d7882610df5565b9150610d8383610df5565b9250827fffffffffffffffffffffffffffffffffffffffffffffffffffffffffffffffff03821115610db857610db7610eed565b5b828201905092915050565b6000610dce82610dd5565b9050919050565b600073ffffffffffffffffffffffffffffffffffffffff82169050919050565b6000819050919050565b82818337600083830152505050565b60005b83811015610e2c578082015181840152602081019050610e11565b83811115610e3b576000848401525b50505050565b60006002820490506001821680610e5957607f821691505b60208210811415610e6d57610e6c610f1c565b5b50919050565b610e7c82610f7a565b810181811067ffffffffffffffff82111715610e9b57610e9a610f4b565b5b80604052505050565b6000610eaf82610df5565b91507fffffffffffffffffffffffffffffffffffffffffffffffffffffffffffffffff821415610ee257610ee1610eed565b5b600182019050919050565b7f4e487b7100000000000000000000000000000000000000000000000000000000600052601160045260246000fd5b7f4e487b7100000000000000000000000000000000000000000000000000000000600052602260045260246000fd5b7f4e487b7100000000000000000000000000000000000000000000000000000000600052604160045260246000fd5b6000601f19601f8301169050919050565b7f4661696c656420746f207769746864726177206d6f6e65792066726f6d20636f60008201527f6e74726163742e00000000000000000000000000000000000000000000000000602082015250565b50565b7f536572696f75736c793f20547279696e6720746f207769746864726177206d6f60008201527f7265206d6f6e6579207468616e2074686520636f6e7472616374206861733f2060208201527f49276d207375726520796f752063616e20626520626574746572207468616e2060408201527f746861742100000000000000000000000000000000000000000000000000000060608201525056fea264697066735822122058b3a929d8d13c211f154cc5f8e8af5511a73150b22b51942368bf9aa364f82f64736f6c63430008040033576f772c2074686973206973207265616c6c7920612066616e6379202620736d61727420636f6e747261637421203a6f",
  "linkReferences": {},
  "deployedLinkReferences": {}
}